{
  "_format": "hh-sol-artifact-1",
  "contractName": "Transaction",
  "sourceName": "contracts/Transaction.sol",
  "abi": [
    {
      "anonymous": false,
      "inputs": [
        {
          "indexed": false,
          "internalType": "address",
          "name": "from",
          "type": "address"
        },
        {
          "indexed": false,
          "internalType": "address",
          "name": "receiver",
          "type": "address"
        },
        {
          "indexed": false,
          "internalType": "uint256",
          "name": "amount",
          "type": "uint256"
        },
        {
          "indexed": false,
          "internalType": "string",
          "name": "message",
          "type": "string"
        },
        {
          "indexed": false,
          "internalType": "uint256",
          "name": "timestamp",
          "type": "uint256"
        }
      ],
      "name": "TrasferEth",
      "type": "event"
    },
    {
      "inputs": [
        {
          "internalType": "address payable",
          "name": "_receiver",
          "type": "address"
        },
        {
          "internalType": "uint256",
          "name": "amount",
          "type": "uint256"
        },
        {
          "internalType": "string",
          "name": "_message",
          "type": "string"
        }
      ],
      "name": "SendEth",
      "outputs": [],
      "stateMutability": "nonpayable",
      "type": "function"
    },
    {
      "inputs": [],
      "name": "getTransactions",
      "outputs": [
        {
          "components": [
            {
              "internalType": "address",
              "name": "sender",
              "type": "address"
            },
            {
              "internalType": "address",
              "name": "receiver",
              "type": "address"
            },
            {
              "internalType": "uint256",
              "name": "amount",
              "type": "uint256"
            },
            {
              "internalType": "string",
              "name": "message",
              "type": "string"
            },
            {
              "internalType": "uint256",
              "name": "timestamp",
              "type": "uint256"
            }
          ],
          "internalType": "struct Transaction.TransactionStructure[]",
          "name": "",
          "type": "tuple[]"
        }
      ],
      "stateMutability": "view",
      "type": "function"
    }
  ],
  "bytecode": "0x608060405234801561001057600080fd5b50610c33806100206000396000f3fe608060405234801561001057600080fd5b50600436106100365760003560e01c806305e310b01461003b57806383920e9014610057575b600080fd5b61005560048036038101906100509190610590565b610075565b005b61005f6101f1565b60405161006c91906107e6565b60405180910390f35b60006040518060a001604052803373ffffffffffffffffffffffffffffffffffffffff1681526020018573ffffffffffffffffffffffffffffffffffffffff16815260200184815260200183815260200142815250908060018154018082558091505060019003906000526020600020906005020160009091909190915060008201518160000160006101000a81548173ffffffffffffffffffffffffffffffffffffffff021916908373ffffffffffffffffffffffffffffffffffffffff16021790555060208201518160010160006101000a81548173ffffffffffffffffffffffffffffffffffffffff021916908373ffffffffffffffffffffffffffffffffffffffff1602179055506040820151816002015560608201518160030190816101a09190610a14565b506080820151816004015550507fcc1cccab86259c8fca2f2a67d81e206aa0b7494698169f3f774cdb9baf6eb94333848484426040516101e4959493929190610ba3565b60405180910390a1505050565b60606000805480602002602001604051908101604052809291908181526020016000905b8282101561039957838290600052602060002090600502016040518060a00160405290816000820160009054906101000a900473ffffffffffffffffffffffffffffffffffffffff1673ffffffffffffffffffffffffffffffffffffffff1673ffffffffffffffffffffffffffffffffffffffff1681526020016001820160009054906101000a900473ffffffffffffffffffffffffffffffffffffffff1673ffffffffffffffffffffffffffffffffffffffff1673ffffffffffffffffffffffffffffffffffffffff168152602001600282015481526020016003820180546102fe90610837565b80601f016020809104026020016040519081016040528092919081815260200182805461032a90610837565b80156103775780601f1061034c57610100808354040283529160200191610377565b820191906000526020600020905b81548152906001019060200180831161035a57829003601f168201915b5050505050815260200160048201548152505081526020019060010190610215565b50505050905090565b6000604051905090565b600080fd5b600080fd5b600073ffffffffffffffffffffffffffffffffffffffff82169050919050565b60006103e1826103b6565b9050919050565b6103f1816103d6565b81146103fc57600080fd5b50565b60008135905061040e816103e8565b92915050565b6000819050919050565b61042781610414565b811461043257600080fd5b50565b6000813590506104448161041e565b92915050565b600080fd5b600080fd5b6000601f19601f8301169050919050565b7f4e487b7100000000000000000000000000000000000000000000000000000000600052604160045260246000fd5b61049d82610454565b810181811067ffffffffffffffff821117156104bc576104bb610465565b5b80604052505050565b60006104cf6103a2565b90506104db8282610494565b919050565b600067ffffffffffffffff8211156104fb576104fa610465565b5b61050482610454565b9050602081019050919050565b82818337600083830152505050565b600061053361052e846104e0565b6104c5565b90508281526020810184848401111561054f5761054e61044f565b5b61055a848285610511565b509392505050565b600082601f8301126105775761057661044a565b5b8135610587848260208601610520565b91505092915050565b6000806000606084860312156105a9576105a86103ac565b5b60006105b7868287016103ff565b93505060206105c886828701610435565b925050604084013567ffffffffffffffff8111156105e9576105e86103b1565b5b6105f586828701610562565b9150509250925092565b600081519050919050565b600082825260208201905092915050565b6000819050602082019050919050565b6000610636826103b6565b9050919050565b6106468161062b565b82525050565b61065581610414565b82525050565b600081519050919050565b600082825260208201905092915050565b60005b8381101561069557808201518184015260208101905061067a565b60008484015250505050565b60006106ac8261065b565b6106b68185610666565b93506106c6818560208601610677565b6106cf81610454565b840191505092915050565b600060a0830160008301516106f2600086018261063d565b506020830151610705602086018261063d565b506040830151610718604086018261064c565b506060830151848203606086015261073082826106a1565b9150506080830151610745608086018261064c565b508091505092915050565b600061075c83836106da565b905092915050565b6000602082019050919050565b600061077c826105ff565b610786818561060a565b9350836020820285016107988561061b565b8060005b858110156107d457848403895281516107b58582610750565b94506107c083610764565b925060208a0199505060018101905061079c565b50829750879550505050505092915050565b600060208201905081810360008301526108008184610771565b905092915050565b7f4e487b7100000000000000000000000000000000000000000000000000000000600052602260045260246000fd5b6000600282049050600182168061084f57607f821691505b60208210810361086257610861610808565b5b50919050565b60008190508160005260206000209050919050565b60006020601f8301049050919050565b600082821b905092915050565b6000600883026108ca7fffffffffffffffffffffffffffffffffffffffffffffffffffffffffffffffff8261088d565b6108d4868361088d565b95508019841693508086168417925050509392505050565b6000819050919050565b600061091161090c61090784610414565b6108ec565b610414565b9050919050565b6000819050919050565b61092b836108f6565b61093f61093782610918565b84845461089a565b825550505050565b600090565b610954610947565b61095f818484610922565b505050565b5b818110156109835761097860008261094c565b600181019050610965565b5050565b601f8211156109c85761099981610868565b6109a28461087d565b810160208510156109b1578190505b6109c56109bd8561087d565b830182610964565b50505b505050565b600082821c905092915050565b60006109eb600019846008026109cd565b1980831691505092915050565b6000610a0483836109da565b9150826002028217905092915050565b610a1d8261065b565b67ffffffffffffffff811115610a3657610a35610465565b5b610a408254610837565b610a4b828285610987565b600060209050601f831160018114610a7e5760008415610a6c578287015190505b610a7685826109f8565b865550610ade565b601f198416610a8c86610868565b60005b82811015610ab457848901518255600182019150602085019450602081019050610a8f565b86831015610ad15784890151610acd601f8916826109da565b8355505b6001600288020188555050505b505050505050565b610aef8161062b565b82525050565b6000610b10610b0b610b06846103b6565b6108ec565b6103b6565b9050919050565b6000610b2282610af5565b9050919050565b6000610b3482610b17565b9050919050565b610b4481610b29565b82525050565b610b5381610414565b82525050565b600082825260208201905092915050565b6000610b758261065b565b610b7f8185610b59565b9350610b8f818560208601610677565b610b9881610454565b840191505092915050565b600060a082019050610bb86000830188610ae6565b610bc56020830187610b3b565b610bd26040830186610b4a565b8181036060830152610be48185610b6a565b9050610bf36080830184610b4a565b969550505050505056fea264697066735822122075f7edcbad60909af0e2c1178940a5c7b0b74911e71982b6644518a682b2086f64736f6c63430008130033",
  "linkReferences": {},
  "deployedLinkReferences": {}
}